:400000000080002011000000510700005107000010B500F0A5FBC04670B51222304B1A6000F09CFF2F4801F073F9012000F0B6FF302000F0ADFE2C4A2C4B1A602C4C802522
:40004000ED0525602B4A116802230B4313602A4A2A4B1A6000222A4B1A602A4A136808218B431360FA20C00000F044FF264800F085FE9022D201254B1A60254B254A1A60B2
:40008000E8214901244A1160244A1A60B0210901234A1160234A1A6088218901224A1160224A1A6082221206214B1A608022D202204B1A604322204B1A60023A1F4B1A6029
:4000C000013A1F4B1A6002321E4B1A601E49082000F004FE082000F0F5FD256070BDC04630001040001BB7000600008004010B400C020B4078002E402D3E00007C002E40CB
:4001000064F02E406CF02E40DC0500000C0301400000014043FF00800403014041FF00800003014040FF00800803014042FF008008010B4000010B401C010140180101408F
:400140000801014004010140B510000010B572B60022264B1A6000240FE025486200131959000B00411889881A5AC31858880004104300F0B5FA0134E4B2012CEDD91D4A0A
:400180001D4B1A601D4A1E4B1A6099231B041D4A13601D4A13601D4A13601D4A13601D4A117806230B43DBB213702D231A4A13601A491B4A11601B4A13601F3B1A4A1360F0
:4001C0001A491B4A11601B4A13601B4A1B4B1A6003231B4A1360802109021A4A11601A4A1360FFF719FF00F091FA10BD6CF02E40FC160000FFFF99EE00000240F0FF00006B
:400200000001024000500F4010500F4020500F4030500F4000700F40000004408E1DDB00080004401800044000010440B66DC7000801044018010440060018000802044029
:4002400000030440080304401803044010B5064C2378002B07D1054B002B02D0044800E000BF0123237010BD4801002000000000AC160000084B10B5002B03D00749084837
:4002800000E000BF07480368002B00D110BD064B002BFBD09847F9E7000000004C010020AC160000C000002000000000F8B506000F0000F05DFC002825D129E0631EF35C05
:4002C0000D2B13D0082B0ED0351900F0D1FCC0B22870002802D1013CE4B201E000F050FC0134E4B210E0013CE4B20DE0013CE4B23619002333700D2000F042FC0A2000F0FA
:400300003FFC012004E00024A3B2BB42D6D30120F8BDC04610B5012000F0B6FB144B186000240EE0002000F0AFFB124B1860196809B2002000F0BEFBA2000F4BD05001342D
:40034000E4B2092CEED9002309E099000A4A8A580A490868844662440A600133DBB2092BF3D9064C0A21206801F06CF8206010BDC80100209C010020A001002098010020EB
:4003800070B50500002403E000F0FAFB013464B2285D0028F8D10D3000F0F2FB0A2000F0EFFB70BDF8B506000F000500062424E0042C02D12E233B551DE0002C07D1002E13
:4003C00002DA2D233B5516E020233B5513E00A21280001F01DF9002906DA80231B069C466144124B59400131303139550A21280001F028F80500013C64B2002CD8DA002402
:4004000004E0385D00F0BCFB013464B2062CF8DD202000F0B5FB432000F0B2FB0D2000F0AFFB0A2000F0ACFBF8BDC046FFFFFF7FF8B50F0095B2013844B20DE00A21280039
:4004400000F0FCFF8EB20A21280000F071FF85B230363E55013C64B2002DEFD1002C04DC05E020233B55013C64B2002CF9DAF8BD30B583B0050000F0ADFE0028FBD101AC0A
:400480005F232370503B2B4063702D09A57000F0DDFE0321200000F091FE03B030BDC04630B583B0050000F095FE0028FBD101AC1F232370103B2B4063702D09A57000F005
:4004C000C5FE0321200000F079FE00F083FE0028FBD103B030BDC04670B50400651C2078FFF7C6FF63782C00002BF7D170BDC04610B58038C0B2FFF7D3FF10BD10B50120EF
:40050000FFF7CEFF0020FFF7F3FF10BD10B584B0022000F01BFC002000F0EEFE052000F015FC012000F0E8FE642000F00FFC0C22094901A801F09EF8002408E001AB185D8C
:40054000FFF7AEFF012000F001FC0134E4B20B2CF4D904B010BDC046B016000010B58EB062B600F089F900F0EDFA00F009FE00F039FE00F05BFA00F069FA022000F070FA18
:40058000002000F037F9012000F040F9FFF7C2FE4A4C642023685843494B9C466044052100F050FF0B90002323600B980CA9FFF7F9FEFFF7ABFFFFF7A1FF012000F0C6FBAE
:4005C000002404E00CAB185DFFF752FF0134062CF8D9012000F0BAFB002414216846FFF765FE002811D03749684601F054F8002802D0012000F00AF93349684601F04BF842
:40060000002802D0002000F001F9062C50D12F4800F044FB0D2000F0B3FA0A2000F0B0FAFFF778FE2A4B1A6812B208A90A20FFF7FFFE284B1A6812B205A90A20FFF7F8FEBD
:4006400008A8FFF79DFE05A8FFF79AFE224800F025FB0D2000F094FA0A2000F091FA174C642023685843164B9C466044052100F0E9FE0B90002323600B980CA9FFF792FE24
:40068000FFF73CFF1548FFF727FF012000F05EFB2020FFF72DFF002404E00CAB185DFFF7E7FE0134062CF8D9012000F04FFB0024FA20400000F04AFB01348EE7980100200C
:4006C000B817FEFFBC160000C0160000C41600009C010020C8010020D4160000EC16000010B50A00002100F0CEFF10BD064B1B68002803D080221206134301E05B005B0822
:40070000014A13607047C04680033A4010B50323094A1360094A136080210906084A1160084A1360084A13600022084B1A600120FFF7DCFF10BDC0463000304030003140D8
:4007400000003A4000033A4040033A40000E3F4010B500F063FF03680C2B00D1FEE7FEE770B50F4E0F4D13E029686B68AC68002202E001C901C30432A242FAD1E8680022B2
:4007800002E0002102C304328242FAD11035013E002EE9D100F048FFFFF7E0FEFEE7C046010000006817000010B50E4A136801218B43136000230AE0032B03D89A000A49CC
:4007C000505800E009489900094A885001332F2BF2D9FFF7BBFC034A116801230B43136010BDC0460000104000000000510700000000002004490A68D2B210239A430001BC
:4008000018401043086070470001044004490A68D2B240239A4380011840104308607047000204407047C0468423014AD05070470000002010B5040000F073FD044A1168FF
:40084000044B0B40A4031C43146000F06EFD10BD10E400E0FF3FFFFF80229202014B1A607047C04600E100E080229202014B1A607047C04680E100E010B5FFF7F5FF0448BD
:40088000FFF7D2FF0320FFF7D5FFFFF7E5FF10BD2508000010B503210F2000F031FA3D490F2000F01BFA03223B4B1A603B4B1B68002B01DA3A4900E03A493B4A13680B435B
:4008C00013603A4A3A4B1A603A4A3B4B1A6000233A4A13603A4A3B490A603B490A603B4A13603B4A136001223A4B1A603A4A11683A4B0B40802189050B431360002445E0EC
:400900003749A2005058DC239B0103400919097A0B4334498C4662441360C30707D52B490A680123A3401B041B0C13430B60A3002B4A9B589B0707D525490A680123A340AA
:400940001B041B0C13430B60A300254A9B589A0502D58020C00001E080204001DB0504D463000021204A995203E0420863001E495A521E4B58431E4B9C4660441D4900F056
:4009800061FD00B2A2001C4BD0500134012CB7D910BDC046110B000020003A4080033A40602E1013602E001300003A40C100008004003A400000FF0718003A401C003A40CD
:4009C0000200020010003A4014003A4028023A4038023A4018023A4030003A40FEFFFFDF0817000080003A40CC0100201027000072060000E40C0000D001002010B5094BBB
:400A00001B68002B0CDB084B1B68002BFBDB054A1368802109060B4313600A2000F0AEF910BDC04600003A4008023A4010B5064B1B78002B04D1FFF72DFF0122024B1A70B8
:400A4000FFF7DCFF10BDC04664010020034A1368802149020B4313607047C04604003A40020083070CD0074B1B680120184001D19307F8D4002804D00122024B1A6000E0E9
:400A80000020704710023A4010B50400012802D9002000F021F9012C07D8A400044B9C46644420680004000C00E0002000B210BD80013A4070B504000D00012802D90020E7
:400AC00000F00AF963000F4A995A09B2691A09B20D484843002906DDA3000C4A9A58D30F9A18531006E0A300084A9A58D30F9A18521053421818A400044BE15800F0A2FC4B
:400B000000B270BDCC01002010270000D0010020014B1A681A60704710023A4010B500F091F810BD10B500F039F810BD10B5044A1368802109060B431360FFF7EFFF10BDC8
:400B40000000244010B5064B1B78002B04D1FFF7E9FF0122024B1A70FFF7E8FF10BDC04666010020014B18687047C04640032440024B1B681F2018407047C0460803244096
:400B8000044B1B681F221340102BF9D0024B18607047C0460802244040022440154A164B1A600023154A13601549164A1160164A16490A6007201649086016490B600638B8
:400BC0001549086015490A60154A13600421154A1160154A1360154A1360154A1360154A1360154A1360154A13601268144B1A807047C0460B080002000024404000244067
:400C000001000A00480024400700008000032440040324401003244044002440000224400402244050002440880E2440C80E2440480F2440080F2440C80F2440880F244061
:400C400068010020064A1168064B0B40902109040B431360044B1A88044B1A607047C04600000240FFFF0FFF68010020880F244010B5FFF77DFF002802D0FFF773FF00E045
:400C80000020054B1A68D8239B001A4203D01A00014B1A60002010BDC00F244070B50500002402E0FFF76CFF0134285D0028F9D170BDC046024B1B68012018407047C04607
:400CC0000C002E401F2318401E3B8340014A13607047C04600E100E001BE704770B504000D001F2802D90020FFF7F6FF1034A40080239B059C4664442068256070BDC046BA
:400D000070B504000E00032902D90020FFF7E4FF1F2C02D90020FFF7DFFF03252540ED00063500F0FEFAA408A400074B9C46644421680323AB4099430B003100A9401943A2
:400D4000216000F0F2FA70BD00E400E010B5040006E0084B586800F0DBFA074B9C46644480231B029C42F4D8024B9868604300F0CFFA10BDC40000200080FFFF10B5034B6D
:400D80001B7B584300F0C4FA10BDC046C4000020F0B557464E46C0B483B0040000F0C1FA0190E71E2D2F74D83F4B1B78DBB29C4208D83E4B1B78DBB29A463D4B1B78DBB29A
:400DC000994631E03B4B1B78DBB29C4208D83A4B1B78DBB29A46394B1B78DBB2994623E0374B1B78DBB29C4208D8364B1B78DBB29A46354B1B78DBB2994615E0334B1B782E
:400E0000DBB29C4208D8324B1B78DBB29A46314B1B78DBB2994607E02F4B1B78DBB29A462E4B1B78DBB299462D4BDE5D2F2E09D92A2C07D919222B4B1A60052000F068FACC
:400E4000192503E0274B1D683F231D40B54206D9234BDA5D234B1A60052000F059FA1F4B9C4664442378DBB21F4A13601F4B52461A601F4B4A461A600520FFF77FFFB54258
:400E80000AD2174BDA5D174B1A60052000F040FA02E00020FFF720FF019800F046FA03B00CBC91469A46F0BD40F3FF0F41F3FF0F42F3FF0F43F3FF0F44F3FF0F45F3FF0F3E
:400EC00046F3FF0F47F3FF0F48F3FF0F49F3FF0F4AF3FF0F4BF3FF0F4CF3FF0F4DF3FF0F141700002CFF0B4028FF0B401CFF0B4020FF0B4010B504000F4A116801230B43AE
:400F000013600E4A0E4B1A600E4A1368802109020B431360002809D100200CE00120FFF72DFFFFF7C7FE002804D1013C002CF5D1102000E0002010BD60F02E4002200000BE
:400F400078002E4010002E40034B1868C0231B02184000D00120704700010B4010B50D4B1A6801218A431A601A68022082431A60094A10683024A043203C2043106010685F
:400F8000093CA043014311601A68802109060A431A6010BD00F02E4000FF2E4070B51D4B1B6801241C40002802D0012816D02BE0184B196801229143196019680220814363
:400FC0001960154B19682E3081432038014319601968093881430A431A6018E00D4B1A6802218A431A600C4A10680725A84301431160116830208143103801431160196832
:4010000001220A431A6002E00020FFF765FE200070BDC04600F02E4000FF2E4010B500F080F9044A1368C02109020B43136000F07CF910BD00010B4010B500F072F90849BA
:401040000A68084B1A408024E40122430A600A6813408022120213430B6000F066F910BD00010B40FF3FFFFF70B5050000F059F90400FFF769FF002803D0FFF7DDFF01215C
:4010800000E0002108482840084A1568084B2B40184310601368012901D1FFF7BFFF200000F043F970BDC0460404040010020B40FBFBFBFF10B5244B1B685B0715D5234BAB
:4010C0005B685B070ED5224B596A042001401F4C62688A4362605A6A82435A629B69002B00D098470420FFF7BFFF174B1B685B0518D5164B5B685B0510D5154B596A802234
:40110000D2001140114842688A434260596A114A0A405A62DB69002B00D098478020C000FFF7A2FF084B1B685B030CD5074B5B685B0304D5064B1B6A002B00D09847802030
:40114000C002FFF791FF10BD10020B40D80000206C010020FFFBFFFF10B500F053F810BD10B500F083F810BD10B5044A1368802109060B431360FFF7EFFF10BD00002540A1
:4011800010B5064B1B78002B04D1FFF7E9FF0122024B1A70FFF7E8FF10BDC04694010020044B1B681F221340102BF9D0024B18607047C046080225404002254070B506001C
:4011C0000D00002403E0305DFFF7EAFF0134AC42F9D370BD024B1B681F2018407047C04608022540054B1A68802149020A431A601968034A0A401A607047C0460402254081
:40120000FFFFFEFF10B50D4B1968F0242402214319601868F022120110431860084B1968F020084318601968114319601A6822431A60044B1A88044B1A6010BD000002406F
:401240000001024096010020880F254005490A68054B1A408006C0231B051840104308607047C04620002540FFFFFFF310B5124A124B1A60124A134B1A60134B134A1360E6
:401280000721134A1160134A13600023124A1360124A1360124A1360124A1360124A1360124A1360124A13601268124B1A800020FFF7CCFF10BDC046070800010000254002
:4012C0000D000080200025400700008000032540040325400002254004022540880E2540C80E2540480F2540080F2540C80F2540880F25409601002004490A68D2B22023CC
:401300009A4340011840104308607047000104400230800803D00138FDD1C046C046C0467047EFF3108072B6704780F310887047002243088B4274D303098B425FD3030A77
:401340008B4244D3030B8B4228D3030C8B420DD3FF22090212BA030C8B4202D31212090265D0030B8B4219D300E0090AC30B8B4201D3CB03C01A5241830B8B4201D38B03C9
:40138000C01A5241430B8B4201D34B03C01A5241030B8B4201D30B03C01A5241C30A8B4201D3CB02C01A5241830A8B4201D38B02C01A5241430A8B4201D34B02C01A524174
:4013C000030A8B4201D30B02C01A5241CDD2C3098B4201D3CB01C01A524183098B4201D38B01C01A524143098B4201D34B01C01A524103098B4201D30B01C01A5241C308C3
:401400008B4201D3CB00C01A524183088B4201D38B00C01A524143088B4201D34B00C01A5241411A00D20146524110467047FFE701B5002000F0F0F802BDC0460029F7D0AE
:4014400076E7704703460B437FD4002243088B4274D303098B425FD3030A8B4244D3030B8B4228D3030C8B420DD3FF22090212BA030C8B4202D31212090265D0030B8B4277
:4014800019D300E0090AC30B8B4201D3CB03C01A5241830B8B4201D38B03C01A5241430B8B4201D34B03C01A5241030B8B4201D30B03C01A5241C30A8B4201D3CB02C01A90
:4014C0005241830A8B4201D38B02C01A5241430A8B4201D34B02C01A5241030A8B4201D30B02C01A5241CDD2C3098B4201D3CB01C01A524183098B4201D38B01C01A5241F6
:4015000043098B4201D34B01C01A524103098B4201D30B01C01A5241C3088B4201D3CB00C01A524183088B4201D38B00C01A524143088B4201D34B00C01A5241411A00D246
:4015400001465241104670475DE0CA0F00D04942031000D34042534000229C4603098B422DD3030A8B4212D3FC22890112BA030A8B420CD3890192118B4208D3890192114D
:401580008B4204D389013AD0921100E08909C3098B4201D3CB01C01A524183098B4201D38B01C01A524143098B4201D34B01C01A524103098B4201D30B01C01A5241C3087B
:4015C0008B4201D3CB00C01A524183088B4201D38B00C01A5241D9D243088B4201D34B00C01A5241411A00D20146634652415B10104601D34042002B00D5494270476346ED
:401600005B1000D3404201B5002000F005F802BD0029F8D016E770477047C046014B18687047C046400100200E4B70B500251E000D4CE41AA410A54204D0AB00F3589847C0
:401640000135F8E700F07EF8084B00251E00084CE41AA410A54204D0AB00F35898470135F8E770BD50170000501700005017000058170000002310B59A4203D0CC5CC45406
:401680000133F9E710BD03008218934202D019700133FAE7704702780B78002A03D0013001319A42F7D0D01A70470000000000000C3A09061E391B6E567A38614F4E0000D4
:4016C0004F4646004144432056616C7565733A200000000054656D70657261747572652052656164696E67733A20000054656D70657261747572653A2000000000300F40C1
:40170000000400400F400004000000000000000001000000030405060708090A0B0C0E0F101112131415161718191B1C1D1E1F2021222325262728292A2B2E2F303132338A
:4017400034354300F8B5C046F8BC08BC9E46704775020000A9070000F8B5C046F8BC08BC9E4670474D02000078170000C00000208800000090000000000000000100000033
:401780000000C05D80BB000030000000006CDC02F0000000040404000000000000000000000000000000000000000000000000000000000000000000421700000000000002
:4017C0000000000000000000000000000000000000000000000000000000000000000000000000000000000000000000000000000000000000000000E000002000000000E9
:4018000000000000000000000000000000000000000000000000000000000000000000000000000000000000000000000000000000000000000000000000000000000000A8
:401840000000000000000000000000000000000000000000000000000000000000000000000000000000000000000000000000000000000000000000000000000000000068
:401880000000000000000000000000000000000000000000000000000000000000000000000000000000000000000000000000000000000000000000000000000000000028
:4018C00000000000000000000000000000000000000000000000000000000000000000000000000000000000000000000000000000000000000000000000000000000000E8
:020000040003F7
:0200000490303A
:02000000A3FB60
:0200000490402A
:4000000000000000000000000000000000000000000000000000000000000000000000000000000000000000000000000000000000000000000000000000000000000000C0
:400040000000000000000000000000000000000000000000000000000000000000000000000000000000000000000000000000000000000000000000000000000000000080
:0200000490501A
:0C00000000021A1711AA00011A1EB5A573
:0200000490600A
:0100000001FE
:00000001FF