:400000000080002011000000C9040000C904000080B500AF00F062FA80B500AF1F4B12221A6004F005F8012004F012F8302003F075FD1B4B1B4A1A601B4B1B4A12680221D7
:400040000A431A60194B1A4A1A601A4B00221A60194B194A126808218A431A60FA23DB00180003F04DFE154B180003F081FF144B144A1A60144B154A1A60154B8022120603
:400080001A60144B8022D2021A60134B40221A60124B00221A60C046BD4680BD3000104004010B400600008078002E407C002E402D3E000064F02E406CF02E40DC05000000
:4000C0000003014000DB05000000014040FF008008010B4000010B40040101400C020B4080B582B000AF72B6364B00221A60FB1D00221A7022E0FB1D1A7813005B009B18B1
:400100005B00314A9B183B603B681A78597809020A43997809040A43DB781B06134318003B681A795B791B0213439BB2190000F0A7F9FB1D1A78FB1D01321A70FB1D1B7853
:40014000012BD8D9214B224A1A60224B224A1A60224B0F221A60224B992212041A60214B992212041A60204B992212041A601F4A1E4B1B78DBB206210B43DBB213701C4BE2
:4001800031221A601B4B1C4A1A601C4B10221A601B4BC0221A601B4B1B4A1A601B4B80221A601B4B03221A601A4B16221A601A4B01221A60FFF730FF00F072F9C046BD46E9
:4001C00002B080BD6CF02E40044300000000024000000FEE000102400000F0F00002024000500F4010500F4020500F4000700F4000000440080004400660D9001800044062
:4002000000010440080104400080D8001801044000020440080204401802044010B5064C2378002B07D1054B002B02D0044800E000BF0123237010BD58010020000000009B
:400240004C420000084B10B5002B03D00749084800E000BF07480368002B00D110BD064B002BFBD09847F9E7000000005C0100204C420000C80000200000000090B583B0A7
:4002800000AF7B1D02221A7062B600F083FA002000F0CEF9FB1D00221A70BB1D00221A7010E0BB1D1A78BB1D01321A70BB1D1B78FF2B02D1BB1D00221A70FC1D00F02CFF96
:4002C00003002370FB1D1B78002BEAD07B1D7A1D1278013A1A707B1D1B78002BD5D101F081F80300DAB2574B1A70BB1D00221A700CE0BB1D1B78180000F094FE0200524B25
:400300001A60BB1D1A78BB1D01321A704D4B1B78BA1D12789A42ECD33C1D4C4A4C4B1100180000F0CDFA030023703B1D1A78494B1100180000F01CFE3B1D1B78180000F07D
:4003400051FA3C1D414A444B1100180000F0B8FA030023703B1D1A78404B1100180000F007FE3B1D1B78180000F03CFA3C1D374A3B4B1100180000F0A3FA030023703B1D9E
:400380001A78384B1100180000F0F2FD3B1D1B78180000F027FA3C1D334A314B1100180000F08EFA030023703B1D1A782F4B1100180000F0DDFD3B1D1B78180000F012FA2D
:4003C0003C1D2B4A264B1100180000F079FA030023703B1D1B78180001F012F80200254B1A603B1D1B780021180000F06BFF07E0FC1C3B1D1B78180000F002FC03002370AE
:400400003B1D1B78180001F02BF8031EF0D03B1D1B78180000F0E6F9174A0D4B1100180001F076F8154A0C4B1100180001F016F9094B180001F034F8002000F0F9F800F058
:40044000BFF9FEE7990100208C0100205042000054420000604200007842000088420000A0420000AC420000C4420000C8420000E04200009C010020E4420000F44200000F
:4004800080B582B000AF786039603A687B680021180003F0D3FEC046BD4602B080BDC04680B500AF054B03221A60054B03221A60044B00221A60C046BD4680BD30003040A2
:4004C00030003140000E3F4080B500AF03F08AFE03001B680C2B00D1FEE7FEE780B586B000AF224B7B61224B3B61204B7B6135E03B691B68FB603B695B68BB603B699B68A4
:400500003B6000237B600CE0FB681A68BB681A60BB680433BB60FB680433FB607B6804337B607A683B689A42EED13B69DB683B6000237B6008E0BB6800221A60BB680433B4
:40054000BB607B6804337B607A683B689A42F2D13B6910333B617B69013B7B617B69002BC6D103F045FEFFF789FEFEE7010000009443000080B582B000AF154B144A126864
:4005800001218A431A6000237B600FE07B68032B04D8104B7A689200D35800E00E4B0F4A796889008B507B6801337B607B682F2BECD9FFF795FD0A4B00221A60044B044A1D
:4005C000126801210A431A60C046BD4602B080BD0000104000000000C904000000000020C000002080B582B000AF0200FB1D1A70002003F023FA0021002003F0C5F903F0B4
:4006000049F803F0D7F803F0A9F8C046BD4602B080BDC04680B500AF012003F00FFA002000F006F803F048F8C046BD4680BDC04680B582B000AF0200FB1D1A70FB1D1B7832
:40064000002B06D0002003F0F9F9012003F0CEF905E0012003F0F2F9002003F0C7F9C046BD4602B080BDC04680B582B000AF0200FB1D1A70FB1D1B78180003F085F8C046F1
:40068000BD4602B080BDC04680B584B000AF78600023FB6012E07A68FB68D3181B78180003F072F8C04603F049F8031EFBD003F035F80300BB60FB680133FB60FB68FF2BC7
:4006C000E9D9C046BD4604B080BDC04690B585B000AF78600A00FB1C1A700023FB6012E0FF2003F051F8C04603F028F8031EFBD07A68FB68D41803F011F80300DBB223706C
:40070000FB680133FB60FB1C1A78FB689A42E7D8C046BD4605B090BD90B585B000AF78600023FB6012E0FF2003F02EF8C04603F005F8031EFBD07A68FB68D41802F0EEFF7A
:400740000300DBB22370FB680133FB60FB68FF2BE9D9C046BD4605B090BDC04680B582B000AF02F0DBFF0200FB1D1A70FB1D1B781800BD4602B080BD80B582B000AF02F0C1
:40078000DDFF0200FB1D1A70FB1D1B781800BD4602B080BD80B500AF054B064A1A60064B064A1A600020FFF71DFFC046BD4680BDD0010020E0010020A00100200C03002091
:4007C00080B500AF054BFF221A60054BFF221A60FFF720FFC046BD4680BDC046D0010020A001002080B584B000AF0200FB1D1A700F23FB18A0221A70FB1D1B78012B46D8EA
:40080000FB1D1B78254AD35C1A000F231340012B04D0FB1D1B78180000F0D8FBFB1D1A781F4B92000021D150FB1D1A781D4B92000021D150FB1D1A781B4B92000021D15098
:40084000FB1D1A78194B92000021D150FB1D1A78174B92000021D150FB1D1B78154A0021D154FB1D1B78144A0021D154FB1D1B780A4A0021D154FB1D1B78104A0021D15487
:40088000FB1D1A780F23FB180C498A5C1A700F23FB181B781800BD4604B080BD08030020A8010020C0010020F0020020B4010020E0020020B0010020CC0100200003002001
:4008C00090B587B000AF786039601623FB1800221A701523FB1800221A701723FB1800221A700EE01723FB181A78C04B9200D358002B0CD01723FB181A781723FB18013279
:400900001A701723FB181B78012BEBD900E0C0461723FB181B78012B00D95FE11723FB181B78B34A0021D15472E01623FB181B783A68D3181B78722B14D11723FB181B787C
:400940001722BA181278AA498A5C01210A43D1B2A74AD1541523FB181A781523FB1801321A704EE01623FB181B783A68D3181B78772B14D11723FB181B781722BA181278F3
:400980009B498A5C02210A43D1B2994AD1541523FB181A781523FB1801321A7031E01623FB181B783A68D3181B78612B14D11723FB181B781722BA1812788D498A5C0421B6
:4009C0000A43D1B28A4AD1541523FB181A781523FB1801321A7014E01623FB181B783A68D3181B782B2B0CD11723FB181B781722BA1812787E498A5C08210A43D1B27C4A42
:400A0000D1541623FB181A781623FB1801321A701623FB181B783A68D3181B78002B84D11523FB181B78012B0AD01723FB181B786F4A0021D1541523FB18AA221A7003E0E4
:400A40001523FB1800221A701623FB1800221A7012E01623FB181B781622BA18127879688A1811780822BA18D1541623FB181A781623FB1801321A701623FB181B787A684D
:400A8000D3181B78002BE4D11623FB181B780822BA180021D1541523FC180823FB18180002F0DCFB030023701523FB181B78002B1DD11623FB1800221A7013E04D4B1A68BA
:400AC0001623FB181B78D3181622BA181278082179188A5C1A701623FB181A781623FB1801321A701623FB181B780B2BE6D91523FB181B78002B6DD11723FB181B78172253
:400B0000BA1812783C498A5C02218A43D1B23A4AD1541723FB181B780021180001F01CFC1723FB181B78344AD35C1A000223134028D01723FB181B782D4AD35C1A000123D5
:400B4000134004D01723FB1802221A7046E0294B1A681723FC181723FB181B781100180001F0BCFF030023701723FB181B781722BA18127820498A5C02218A43D1B21E4AFF
:400B8000D1542BE01723FB181B78194AD35C1A000123134022D11723FB181B78144AD35C1A000223134007D01723FB181B780021180002F03BF811E01723FB181A780F4BD1
:400BC0009200D2581723FB181B781100180000F079FB03E01723FB1802221A701723FB181B781800BD4607B090BDC046C001002008030020A001002000030020B401002024
:400C000090B585B000AF0200FB1D1A700F23FB1800221A70FB1D1B78012B00D9A7E0FB1D1A78564B9200D258554B1B689A4200D19DE0FB1D1A78534B9200D258FB1D1978BE
:400C4000514B8900CB589A4200D990E0FB1D1B780121180002F056FC4C4B1B781A000123134007D04A4B1B685B0A5A02494B1B689A4240D0012001F09DF9454B1B6819009C
:400C8000512000F08DFD002001F04AF90300AA2B23D0FE2001F044F90300AA2B11D0FF20FFF7E2FC01F0A2F90F23FC18FFF756FD03002370FB1D1B780021180002F072FC3D
:400CC00016E0FB1D1B78FA1D127833498A5C08210A43D1B2304AD1540AE0FB1D1B78FA1D12782D498A5C08210A43D1B22A4AD15400F00EFE23E0FB1D1A78224B9200D358C1
:400D0000DB05DB0DBB60BB68FF2B08D8234B1A68BB68D2180F23FB1812781A7009E0204B1A68BB68013BFF3BD2180F23FB1812781A70FB1D1B780021180002F033FCFB1D7E
:400D40001A78104B9200D258FB1D19780E4B8900CB589A420BD1FB1D1B78FA1D12780E498A5C802149420A43D1B20B4AD1540F23FB181B781800BD4605B090BDF00200205E
:400D8000D8000020E0020020B40100207C010020A40100207801002000030020D0010020A001002080B584B000AF0200FB1D1A70BB1D0A1C1A700F23FB18AA221A70BB1DDD
:400DC0001B78022B00D1B5E0BB1D1B785D4AD35C1A000F231340012B00D1ABE0BB1D1A78594B9200D258594B1B689A420BD0BB1D1A78574B9200D258BB1D1978554B890063
:400E0000CB589A4208D9BB1D1B784E4AD35C1A000223134000D18DE0BB1D1A784C4B9200D258BB1D19784B4B8900CB5801339A4200D97FE0BB1D1A78474B9200D358002B3C
:400E400004D1BB1D1B78180002F020F8BB1D1A783F4B9200D258BB1D19783E4B8900CB589A4213D1BB1D1B783A4A99008A58511C384A9B009950BB1D1B78BA1D12783149DF
:400E80008A5C10210A43D1B22E4AD154BB1D1B780021180002F036FB304B1A68304B1B689A421AD02F4B1B781A00012313400BD02B4B1B68180001F0B7FC2A4B1B780122CD
:400EC0009343DAB2274B1A70244B1B68180001F0A3FD224B1A68224B1A60BB1D1A781C4B9200D358DB05DB0DBB60BB68FF2B07D81D4B1A68BB68D318FA1D12781A7008E07B
:400F00001A4B1A68BB68013BFF3BD318FA1D12781A70144B1B7801221343DAB2114B1A70BB1D1B780121180002F03CFB0F23FB1800221A700F23FB181B781800BD4604B0D8
:400F400080BDC04608030020F0020020D8000020E0020020B4010020C0010020A4010020780100207C010020D0010020A001002090B585B000AF78600A00FB1C1A700F23B6
:400F8000FB18AA221A7013E07B681A780F23FC18FB1C1B7819001000FFF704FF030023707B6801337B600F23FB181B78AA2B04D07B681B78002BE7D100E0C0460F23FB18C1
:400FC0001B781800BD4605B090BDC04680B582B000AF0200FB1D1A700F4B1B781A000123134007D00D4B1B68180001F01DFC0A4B00221A70FB1D1B78094AD35C1A001023B4
:40100000134004D0FB1D1B78180002F0CDF8C046BD4602B080BDC0467C010020780100200803002080B584B000AF78607B68002B5FD0364B1B687A689A425AD87B68190093
:40104000022001F089F9324B1B681B78002B4AD00F23FB1800221A7015E02E4B1A680F23FB181B781033D218294B19680F23FB181B78CB181B7813700F23FB181A780F234E
:40108000FB1801321A700F23FB181B78072BE4D9204B1B6818332E221A700F23FB1808221A7015E01B4B1A680F23FB181B781133D218174B19680F23FB181B78CB181B7879
:4010C00013700F23FB181A780F23FB1801321A700F23FB181B780A2BE4D90E4B1B681C3300221A700AE00B4B1B68103300221A7004E0084B1B68103300221A70054B1B68C5
:4011000010331800BD4604B080BDC046CC000020D0010020A001002090B583B000AF02F057FC03003B605C4B00221A705B4B0021180002F029FC00F011FCFB1D00221A70A8
:401140000FE0FF20FFF790FA00F050FFFFF706FB03001A00524B1A70FB1D1A78FB1D01321A70FB1D1B78092BEBD9BC1D00F0FEFB03002370FB1DFF221A70BB1DAA221A70FC
:4011800012E000F06DFCBC1D00F052FC03002370FB1D1A78FB1D013A1A70FB1D1B78002B02D1BB1DAA221A70BB1D1B78002B03D0FB1D1B78002BE4D1BB1D1B78AA2B2AD1AA
:4011C000FB1DFF221A70BB1D00221A700FE0FB1D1A78FB1D013A1A70BB1DBA1D12781A70FB1D1B78002B02D1BB1DAA221A7000F007FC031E03D0FB1D1B78002BE7D1BB1D4B
:401200001B78AA2B03D0274B01221A7006E0254B00221A7002E0234B02221A703B689BB20021180002F0B0FB1B4B01221A7000F02FFC02001C4B1A601A4B1B781A000F2339
:40124000134004D0184B1B68180000F07BFC154B1B781A000F23134005D0124B1B781A00F023134011D1114B00221A70104B00221A60104B00221A600F4B00221A600F4BE3
:4012800000221A600E4B02221A60064B1B781800BD4603B090BDC0467E010020DB050000FC0200207D01002074010020FD020020DC010020EC020020D40100200403002080
:4012C000D000002080B586B000AF02003960FB1D1A701723FB1820221A703A4B1B785B021900386802F0F2FE0300FB60FB1D1B78012B5FD8FB1D1A78334B9200D358002B02
:4013000051D0FB1D1A78314B9200D2583B689A420FD8FB1D1A782D4B9200D2583B689A4236D3FB1D1B782A4AD35C1A00042313402ED0FB1D1A78FB1D1978234B8900C95893
:40134000244B9200D15000233B6107E0FB1D1B78180000F061FE3B6901333B613A69FB689A42F3D3FB1D1B783A68520AD1B2FA68D2B2144800784243D2B28A1AD1B2164A01
:40138000D154FB1D1A78154B92003968D1500AE0FB1D1B78FA1D127811498A5C04210A43D1B20F4AD154FB1D1A781723FB180C498A5C1A701723FB181B781800BD4606B054
:4013C00080BDC046FD020020C0010020B401002008030020F0020020B0010020E00200200003002080B500AF044B1900022000F0B3FF03001800BD4680BDC046FEFF000034
:4014000080B584B000AF0200FB1D1A700023FB60FB1D1B78012B05D8FB1D1A78044B9200D358FB60FB681800BD4604B080BDC046B401002080B582B000AF0200FB1D1A70A9
:40144000FB1D1B78012B04D8FB1D1B78034A0021D154C046BD4602B080BDC0460003002080B584B000AF0200FB1D1A700F23FB1880221A70FB1D1B78012B08D8FB1D1B78CB
:40148000064AD25C0F23FB187F218A431A700F23FB181B781800BD4604B080BD0003002090B585B000AF78600F23FB18AA221A700E23FC18154A7B6811001800FFF700FA2F
:4014C000030023700E23FB181B78012B16D80E23FB181B781800FFF7ADFF0F23FC180E23FB181B780121180001F0A0FB030023700E23FB181B781800FFF774F90F23FB18C4
:401500001B781800BD4605B090BDC0463843000090B589B000AF786039601E23FB1800221A701F23FB1800221A7012E01F23FB181B781F22BA18127839688A18117808226E
:40154000BA18D1541F23FB181A781F23FB1801321A701F23FB181B783A68D3181B78002BE4D11F23FB181B780822BA180021D1541E23FC180823FB18180001F06FFE03005D
:4015800023701E23FB181B78002B5ED11D23FC18314A3B6811001800FFF792F9030023701D23FB181B78022B45D11D23FC182A4A7B6811001800FFF783F9030023701D2360
:4015C000FB181B78022B31D01D23FB181B78180001F058FD0300BB611F23FB1800221A7012E01F23FB181B78BA69D3181F22BA181278082179188A5C1A701F23FB181A781D
:401600001F23FB1801321A701F23FB181B780A2BE7D91D23FB181B78180001F057FD1D23FB181B781800FFF7DDF80EE01E23FB18AA221A7009E01D23FB181B781800FFF73A
:40164000D1F81E23FB18AA221A701E23FB181B781800BD4609B090BD3843000090B585B000AF786039600F23FB1800221A700E23FC18484A7B6811001800FFF721F90300F3
:4016800023700E23FB181B78012B00D976E00D23FC18414A3B6811001800FFF711F9030023700D23FB181B78012B56D80E23FB181B781800FFF7BEFE0D23FB181B78180075
:4016C00001F0E4FB36E00F23FC180E23FB181B78180001F067F9030023700F23FC180D23FB181B78180001F06BF8030023700D23FB181A780D23FB181978284B8900CB5802
:40170000802189005918254B9200D1500E23FB181B78180000F0AEFD0E23FB181B781800FFF79EFE031E05D10D23FB181B78180000F0A0FD0E23FB181B781800FFF790FEFB
:40174000031EC0D00D23FB181A780E23FB181B781100180001F0AEFE03E00F23FB18AA221A700E23FB181B781800FFF73BF80D23FB181B781800FFF735F803E00F23FB1877
:40178000AA221A700F23FB181B781800BD4605B090BDC046384300003C430000B401002080B582B000AF02003960FB1D1A70FF20FEF75AFF00F01AFCFEF7D0FF03001A0062
:4017C000334B1A70FF20FEF74FFF00F00FFCFEF7C5FF03001A002E4B1A700120FEF728FF00F0AEF8FB1D1B781800FEF73DFF00F0FDFBFEF7B3FF03001A00254B1A703B689B
:401800001B0EDBB21800FEF72FFF00F0EFFBFEF7A5FF03001A001E4B1A703B681B0CDBB21800FEF721FF00F0E1FBFEF797FF03001A00174B1A703B681B0ADBB21800FEF7EE
:4018400013FF00F0D3FBFEF789FF03001A00104B1A703B68DBB21800FEF706FF00F0C6FBFEF77CFF03001A00094B1A70FF20FEF7FBFE00F0BBFBFEF771FF03001A00044B37
:401880001A7000F05DF8C046BD4602B080BDC046FC02002090B583B000AFFB1D00221A70FF20FEF7E1FE00F0A1FBFEF757FF03001A00164B1A70BC1DFEF750FF03002370CD
:4018C000FF20FEF7D1FE00F091FBFC1DFEF746FF030023707C1DFEF741FF03002370FF20FEF7C2FE00F082FBFEF738FF03001A00064B1A703C1DFEF731FF03002370FB1DAB
:401900001B781800BD4603B090BDC046FC02002080B500AFFF20FEF7A7FE00F067FBFEF71DFF03001A00054B1A700020FEF780FE00F006F8C046BD4680BDC046FC020020F3
:4019400080B500AF044B1B78002B02D1642002F0E9FAC046BD4680BD7E01002080B500AFC82002F0DFFAC046BD4680BD90B583B000AFFB1C00221A7000237B600DE0FF2094
:40198000FEF772FE00F032FBFEF7E8FE03001A00194B1A707B6801337B607B68012BEED9FFF7DCFF0120FEF743FEFFF7C9FF00237B6011E0114A7B68D3181B781800FEF759
:4019C00053FE00F013FBFEF7C9FE03001A000A4B1A707B6801337B607B68052BEAD9FC1CFFF758FF03002370FFF792FFFB1C1B781800BD4603B090BDFC0200201043000060
:401A000090B583B000AFFB1D00221A7000214120FFF7C6FEFC1DFFF73DFF03002370FFF777FFFB1D1B781800BD4603B090BDC04690B583B000AFFB1D00221A7000216920D1
:401A4000FFF7AEFEFC1DFFF725FF03002370FFF75FFFFB1D1B781800BD4603B090BDC04690B583B000AFFB1D00221A7000217720FFF796FEFC1DFFF70DFF03002370FFF707
:401A800047FFFB1D1B781800BD4603B090BDC04680B582B000AF00237B60BB1C00221A70402000F087FADF235B0019005120FFF777FE002000F034FA0300AA2B33D0FE2023
:401AC00000F02EFA0300AA2B29D01C4B1B6820211800FEF7FBFD1A4B1B6820211800FEF7F5FDFB1C0B221A7011E07B681B027B60124B1A68FB1C1B78D3181B781A007B6807
:401B00009B187B60FB1C1A78FB1C013A1A70FB1C1B78072BE9D87B685B027B6006E0BB1CAA221A7002E0BB1CAA221A70FFF7F0FE7B681800BD4602B080BDC046D0010020F0
:401B4000A001002080B586B000AF78601723FB1800221A700023FB6080239B00180000F029FA7B68002B04D11723FB18AA221A70AAE17B6819005120FFF712FE002000F03E
:401B8000CFF90300AA2B00D19AE1FE2000F0C8F90300AA2B00D18EE1D04B1B681800FEF7BBFDCF4B1B681800FEF7B6FDCB4B1B685A7BCC4B1A70C94B1B680F331B78BB60FC
:401BC000BB681B02BB60C54B1B680E331B781A00BB689B18BB60BB685A027B68D218C24B1A60BE4B1B6836331B78462B51D1BB4B1B6837331B78412B4BD1B84B1B6838332B
:401C00001B78542B45D1B54B1B6839331B78312B1BD1B24B1B683A331B78322B15D1B34B1B781A00F0231340102B31D0AF4B1B780F221340DAB2AD4B1A70AC4B1B781022C7
:401C40001343DAB2A94B1A7022E0A44B1B6839331B78312B14D1A14B1B683A331B78362B0ED1A24B1B780F221340DAB29F4B1A709E4B1B7840221343DAB29C4B1A7007E085
:401C80009A4B1B780F221340DAB2984B1A7044E043E0924B1B6852331B78462B2ED18F4B1B6853331B78412B28D18C4B1B6854331B78542B22D1894B1B6855331B78332B6F
:401CC0002AD1864B1B6856331B78322B24D1874B1B781A00F0231340B02B1DD0834B1B780F221340DAB2814B1A70804B1B78502252421343DAB27D4B1A700DE07B4B1B78D5
:401D00001A00F023134008D0784B1B780F221340DAB2764B1A7000E0C046754B754A1A60754B02221A70714B1B781A00F0231340B02B08D16E4B714A1A606F4B04221A7072
:401D40006F4B704A1A60694B1B781A00F0231340102B0DD0654B1B781A00F0231340402B06D0624B1B781A00F0231340602B46D15A4B1B6817331B78BB60BB681B02BB60B5
:401D8000564B1B6816331B781A00BB689B18BB60524B1B6810331B78012B06D9BB685A02514B1B68D218584B1A604C4B1B6810331B781A00BB6853435A024B4B1B68D21850
:401DC000524B1A60524B00221A60524B00229A60424B1B6812331B78BB60BB681B02BB603E4B1B6811331B781A00BB689B18BB60BB685A01454B1B68D218474B1A603B4B81
:401E00001B781A00F0231340B02B5DD127233B610EE0FB681B02FB60304B1A683B69D3181B781A00FB689B18FB603B69013B3B613B69232BEDD8294B1B6810331B78012B01
:401E400006D9FB685A02284B1B68D2182E4B1A60224B1B6810331B781A00FB6853435A02214B1B68D2182C4B1A602F233B610EE0FB681B02FB60194B1A683B69D3181B7833
:401E80001A00FB689B18FB603B69013B3B613B692B2BEDD81E4BFA681A60FB681F4A944663445A021C4B1B68D218184B1A60194BFA689A6008E01723FB18AA221A7003E08F
:401EC0001723FB18AA221A70FFF722FD1723FB181B781800BD4606B080BDC046D0010020A0010020FD020020DC0100207D010020D8000020FFFF0000D4000020FFFFFF0FD4
:401F0000CC000020FEFF0000EC020020D4010020D8010020C001002004030020FEFF7F0090B585B000AF0200FB1D1A700F23FB1800221A700E23FB18FF221A700D23FB1848
:401F4000FA1D127801321A7020E0FF20FEF78CFB00F04CF80D23FC18FEF700FC030023700E23FB181A780E23FB18013A1A700F23FB180F22BA1812781A700E23FB181B7857
:401F8000002B03D10F23FB18AA221A70FA1D0D23FB1812781B789A4204D00E23FB181B78002BD2D10F23FB181B781800BD4605B090BDC04690B585B000AF78600F23FB187A
:401FC00000221A707B6819005020FFF7E9FB0F23FC18FFF75FFC03002370FFF799FC0F23FB181B781800BD4605B090BD90B583B000AFFC1DFEF7C0FB0300237004E0FC1DBF
:40200000FEF7BAFB03002370FB1D1B78002BF6D0C046BD4603B090BD90B585B000AF0200FB1D1A70FB1D1A78264B9200D358FB60FB1D1A78234B9200D258234B1B689A421A
:402040003CD0FB1D1C78FB1D1A781E4B9200D358180000F03FF801001A4BA200D150FB1D1A78184B9200D258174B1B689A4220D1FB1D1B78154AD35C1A000123134018D142
:40208000FB1D1A780F4B9200F968D150FB1D1B78180000F0FBFEFB1D1C78FB1D1A78094B9200D358180000F015F80100054BA200D150FB1D1B78064A0021D154C046BD4682
:4020C00005B090BDF0020020D800002008030020B001002080B588B000AF78601323FB1800221A701A23FB1801221A707B68002B06D11A23FB1802221A70444B1B687B6022
:40210000434B1B781800FFF755FF75E0404B1B78022B06D17B685A003E4B1B68D3187B6105E07B689A003B4B1B68D3187B617B6919005120FFF734FB0020FFF7F1FE0300C8
:40214000AA2B39D0FE20FFF7EBFE0300AA2B2ED02F4B1A780C23FB1811001800FEF7B6FA0023FB611B23FB1801221A7017E0FB691B02FB61264B1B781A001B23FB181B783F
:40218000D31A0C22BA18D35C1A00FB699B18FB611B23FB181A781B23FB1801321A701C4B1B781B22BA1812789A42E0D908E01323FB18AA221A7003E01323FB18AA221A7054
:4021C000FFF7A6FB1A23FB181B78022B10D1FB69002B09D17B68FB610C4B7A681A601A23FB1800221A7007E07B6801337B6003E01A23FB1800221A701A23FB181B78002B3A
:4022000084D1FB691800BD4608B080BDD0000020D4000020DC01002080B584B000AF0200FB1D1A700023BB60FB1D1A780E4B9200D358002B13D0FB1D1A780C4B9200D3586E
:40224000FB6007E0FB68BB60BB681800FFF742FF0300FB60064B1B68FA689A42F2D1BB681800BD4604B080BDC0010020F0020020D800002080B584B000AF0200FB1D1A7023
:402280000F23FB1800221A70FB1D1B782C4AD35C1A002C4B1B78013B9A4208DAFB1D1B78274AD25C0132D1B2254AD15423E0FB1D1B781800FFF7B0FEFB1D1A78224B920018
:4022C000D258224B1B689A4205D0FB1D1B781C4A0021D1540FE00F23FB18AA221A70FB1D1B78FA1D12781A498A5C802149420A43D1B2174AD1540F23FB181B78002B18D12F
:40230000FB1D1A78FB1D1978124B8900CB588021890059180F4B9200D150FB1D1A78FB1D19780C4B8900CB585B0A5902094B9200D1500F23FB181B781800BD4604B080BD98
:40234000B0010020FD020020F0020020D800002000030020E002002090B587B000AF02003960FB1D1A701723FB1800221A701623FB1800221A7000233B610023FB600B237A
:40238000FB1800221A70D14B9B68002B00D104E1CE4B9A68CE4B9A60CE4B00229A70CE4B00229A60F9E0C94B9B68002B07D13B695A01CA4B1B68D218C94B1A6003E00121AF
:4023C000022001F09FF82020FFF7F4FDC44B1B6819005120FFF7E4F90020FFF7A1FD0300AA2B15D0FE20FFF79BFD0300AA2B06D0BC4B1B6820211800FEF768F910E00B23FB
:40240000FB180B22BA18127808210A431A7007E00B23FB180B22BA18127808210A431A70FFF776FA0B23FB181B78002B00D0AAE0AC4B1B681B78002B07D13B68AA4A934214
:4024400003D01623FB1801221A70A04B9B68002B0BD13B6901333B613B69A44A93422ED91623FB1801221A7029E09B4B9B6820331A00994B9A60984B9B689C4A93421ED9EB
:40248000954B00229A60934B9B780133DAB2914B9A70904B9A78964B1B789A420FD38D4B00229A700220FFF7B7FD894B9A68914B1B689A4203D11623FB1801221A70894BE8
:4024C0001B681B78402B46D9864B1B681B785A2B41D8844B1B680B331B781A001823134039D1FB680133FB603B68002B2AD11523FB1800221A7006E01523FB181A78152335
:40250000FB1801321A70774B1A681523FB181B78D3181A78784B19681523FB181B78CB181B789A4204D11523FB181B780A2BE3D91523FB181B780A2B23D91723FB18012295
:402540001A701EE0FA683B689A421AD11723FB1801221A7015E03B68634A93421DD1614B1B681B78E52B04D05E4B1B681B78002B13D1FB680133FB601723FB1801221A70A5
:402580000BE0C04609E01623FB1801221A701723FB181722BA1812781A701723FB181B78002B05D11623FB181B78002B00D1FAE6FB1D1B78012B00D9E5E0FB1D1B78FA1D09
:4025C00012784E49895C0B22BA1812780A43D1B24A4AD1541723FB181B78012B00D0C6E0474B1B781A00F0231340B02B2ED1FB1D1A783C4B1B6815331B781900344B920009
:40260000D150FB1D1A78FB1D1978314B8900CB5819022F4B9200D150FB1D1A78FB1D19782B4B8900C9582F4B1B6814331B78C918274B9200D150FB1D1A78FB1D1978244BA4
:402640008900CB581902224B9200D150FB1D1A78FB1D19781E4B8900C958224B1B681B331B78C9181A4B9200D150FB1D1A78FB1D1978174B8900CB581902154B9200D150B4
:40268000FB1D1A78FB1D1978114B8900C958154B1B681A331B78C9180D4B9200D150FB1D1A780F4B1968174B9200D150FB1D1A78FB1D1978064B8900C958044B9200D15028
:4026C0001523FB1800221A7044E0C046C0010020F0020020B0010020E0020020D4010020A4010020D0010020FFFF0000FF010000FD020020D8000020A0010020000300204F
:402700007D010020A8010020FB1D1A78FB1D1978264B8900CB581902244B9200D150FB1D1A78FB1D1978214B8900C958204B1B681520381800781F24201A1B181B78C9180D
:402740001A4B9200D1501523FB181A781523FB1801321A701523FB181B78032BD4D9FB1D1A78134B1B68D97A124B995414E0FB1D1B78FA1D127810498A5C02210A43D1B209
:402780000D4AD15408E01723FB181B78002B03D1074B1B6800221A70084B00221A60FB68DBB21800BD4607B090BDC046B4010020D0010020CC0100200003002078010020E2
:4027C00090B585B000AF0200FB1D1A700F23FB1800221A70FB1D1A78104B9200D258104B1B689A420FD0FB1D1B780021180000F089FE0C4B1B680F22BC18180000F014F873
:402800000300237003E00F23FB18AA221A700F23FB181B781800BD4605B090BDF0020020D8000020A401002090B585B000AF78600F23FB1800221A7080239B001800FFF782
:40284000B9FB7B6819005820FEF7AAFFFF20FDF70BFFFFF7CBFB0F23FC18FDF77FFF030023700020FFF75CFB0300AA2B00D177E0FE20FDF7F9FEFFF7B9FBFDF76FFF0300E6
:402880001A00434B1A70434B1B681800FDF7FCFE414B1B681800FDF7F7FEFF20FDF7E4FEFFF7A4FBFDF75AFF03001A00384B1A70FF20FDF7D9FEFFF799FBFDF74FFF030005
:4028C0001A00334B1A70FF20FDF7CEFEFFF78EFB0F23FC18FDF742FF030023700F23FB181B780F221340052B35D1FF20FDF7BCFEFFF77CFB0F23FC18FDF730FF030023707C
:402900000F23FB1800221A7080231B02BB600DE0FF20FDF7A9FEFFF769FB0F23FC18FDF71DFF03002370BB68013BBB600F23FB181B78002B02D1BB68002BE9D1BB68002B38
:4029400004D10F23FB18AA221A700DE00F23FB1800221A7008E00F23FB18AA221A7003E00F23FB18AA221A70FEF7D2FF0B4B7A681A600B4B1B7801229343DAB2084B1A7045
:402980000F23FB181B781800BD4605B090BDC046FC020020D0010020A0010020780100207C01002090B585B000AF0200FB1D1A700F23FB1800221A7080239B001800FFF70C
:4029C000F9FAFB1D1A78114B9200D258104B1B689A420FD0FB1D1B780021180000F092FD0C4B1B680F22BC18180000F015F80300237003E00F23FB18AA221A700F23FB18D9
:402A00001B781800BD4605B090BDC046F0020020D8000020A401002080B584B000AF78600F23FB1800221A70284B1B781A000123134010D0264B1B687A689A420BD0244BBD
:402A40001B681800FFF7F0FE204B1B7801229343DAB21E4B1A701E4B1B687A689A422ED080239B001800FFF7A5FA7B6819005120FEF796FE0020FFF753FA0300AA2B15D0B8
:402A8000FE20FFF74DFA0300AA2B0AD0114B1B681800FDF741FE104B1B681800FDF73CFE08E00F23FB18AA221A7003E00F23FB18AA221A70FEF72CFF054B7A681A600F23BC
:402AC000FB181B781800BD4604B080BD7C01002078010020D0010020A001002080B588B000AF02003960FB1D1A701F23FB1800221A7012E01F23FB181B781F22BA1812786B
:402B000039688A1811780C22BA18D1541F23FB181A781F23FB1801321A701F23FB181B780A2BE7D9394AFB1D1B7811001800FFF713FCFB1D1B78180000F0A4FA0300BB6102
:402B40001F23FB1800221A7012E01F23FB181B78BA69D3181F22BA1812780C2179188A5C1A701F23FB181A781F23FB1801321A701F23FB181B780A2BE7D91F23FB180B2249
:402B80001A7011E01F23FB181B78BA69D3181F22BA1812781E498A5C1A701F23FB181A781F23FB1801321A701F23FB181B781F2BE8D9FB1D1B78180000F088FAFB1D1B7864
:402BC000144A0021D154FB1D1A78134B92000021D150FB1D1A78114B92000021D150FB1D1A780F4B92000021D150FB1D1A780D4B92000021D150FB1D1B780B4A0021D15487
:402C0000FB1D1B781800BD4608B080BDFFFF000018430000CC010020C0010020F0020020B4010020E0020020B001002090B587B000AF0200FB1D1A70BB1D0A1C1A70162368
:402C4000FB18AA221A70FB1D1A78464B9200D358002B07D0FB1D1A78424B9200D358180000F08EF8FB1D1A783F4B9200D3585B0A5B021800FFF7D0FEFB1D1A783A4B92001F
:402C8000D358DB05DB0D3B613B69180000F0D6F90300FB60BB1D1B78002B41D11723FB181A221A700DE01723FB181B78FA68D31800221A701723FB181A781723FB180132CC
:402CC0001A701723FB181B781F2BECD9274B1B78042B07D1FB68143300221A70FB68153300221A70FB1D1A781E4B92000021D150FB1D1A781E4B92000021D150FB1D1A782A
:402D00001C4B92000021D150FB1D1A781A4B92000021D150FB1D1B78184A0021D15402E0FB68E5221A70FB1D1A780F4B9200D3585B0A5B021800FFF777FDBB1D1B78012BB0
:402D400008D11623FC18FB1D1B781800FDF74AFD030023701623FB181B781800BD4607B090BDC046C0010020A8010020D4000020F0020020B4010020E0020020B00100203D
:402D800080B586B000AF786000237B617B68180000F0B2F96AE03A4B1B781A007B685343DB05DB0DFB60FB68180000F047F90300BB6000237B611323FB1801221A7024E0B2
:402DC0007B691B027B612E4B1B781A001323FB181B78D31A1A00BB689B181B781A007B699B187B61264B1B781A001323FB181B78D31A1A00BB689B1800221A701323FB182B
:402E00001A781323FB1801321A701D4B1B781322BA1812789A42D3D91A4B1B687A699A420DD0174B1B781A007B685A43144B1B7819007B694B4353405B0A5B020CD07B6842
:402E4000180000F07FF90F4B1B687A699A4203D07B69180000F050F90B4B1B687A689A4202D2094B7A681A607B697B60054B1B687A699A428FD100231800BD4606B080BD31
:402E8000D4000020D8000020D000002090B587B000AF0200FB1D1A700020FFF71BF90300FB60FB685A1C5F4B1A60FB1D1B781800FFF7B2F90300BB60BB68002B32D1FB1DF7
:402EC0001A78594B9200F968D150FB1D1A78574B9200F968D150FB1D1B78180000F0D2F803003B613B691A33FA68D2B21A703B691B33FA68120AD2B21A704D4B1B78042BD3
:402F00000BD13B691433FA68120CD2B21A703B691533FA68120ED2B21A70FB1D1B78180000F0D4F8FB68180000F0E6F803003B611723FB1800221A7015E01723FB181B788B
:402F40003A69D2183B4B19681723FB181B78DB00D9400B00DBB213701723FB181A781723FB1801321A70324B1B781722BA1812789A42E2D3BB68002B04D1FB68180000F021
:402F8000E1F84AE0BB68180000F0FCF80400FB68180000F0F7F803009C420AD0FB68180000F0D0F8BB68180000F0A6F803003B610BE01F4B1B781A00BB685343DB05DB0DB8
:402FC000180000F03BF803003B611723FB1800221A7014E01723FB181B783A69D3181722BA181278D200F968D1400A00D2B21A701723FB181A781723FB1801321A700C4B6B
:403000001B781722BA1812789A42E3D3BB68180000F098F8084B00221A6000231800BD4607B090BDD0000020C0010020F0020020D4000020D80000207801002080B584B019
:4030400000AF78607B68DB05DB0D7B607A6880235B00134005D1094B1A687B68D318FB6006E0074B1A687B68013BFF3BD318FB60FB681800BD4604B080BDC046D00100207C
:40308000A001002080B584B000AF0200FB1D1A70FB1D1A780C4B9200D3585B0A5B021800FFF7BAFCFB1D1A78074B9200D358DB05DB0DFB60FB681800FFF7C0FF0300180028
:4030C000BD4604B080BDC046A801002080B582B000AF0200FB1D1A70FB1D1A78054B9200D3585B0A5B021800FFF79EFBC046BD4602B080BDA801002080B584B000AF786082
:403100007B68180000F03EF80300FB600B4B1A68FB68D3181800FFF77FFC094B1B781A007B685343DB05DB0DBB60BB681800FFF785FF03001800BD4604B080BDDC01002043
:40314000D400002080B584B000AF78607B68180000F018F80300FB60084B1A68FB68D3181800FFF761FB064B1A68FB68D3181800FFF75AFBC046BD4604B080BDDC0100200A
:40318000EC02002080B582B000AF7860054B1B781A007B6853435B0A5B021800BD4602B080BDC046D400002080B586B000AF0200FB1D1A70FB1D1A78254B9200D3583B61A6
:4031C000FB1D1B781800FFF75DFF0300FB60FB680B33FA1D12781F498A5C1A701723FB1800221A701AE01723FB181B781C331A00FB689B18FA1D1178154A8900895817224E
:40320000BA181278D200D1400A00D2B21A701723FB181A781723FB1801321A701723FB181B78032BDFD9FB1D1B781800FFF74EFFFB1D1B78FA1D127807498A5C10218A4302
:40324000D1B2054AD154C046BD4606B080BDC046B4010020CC0100200803002080B584B000AF78600F23FB1800221A700E23FB1800221A700D23FB1800221A703CE00F235A
:40328000FB181B787A68D2180A23FB1812781A700A23FB181B78602B12D90A23FB181B787A2B0DD80F23FB181B787A68D3180F22BA18127879688A181278203AD2B21A70FB
:4032C0000A23FB181B782E2B0FD10D23FB181B78002B06D10D23FB180F22BA1812781A7003E00E23FB18AA221A700F23FB181A780F23FB1801321A700F23FB181B787A6880
:40330000D3181B78002BBAD10D23FB181B78002B12D00C23FB180D22BA1812781A700F23FA180D23FB1812781B78D31ADAB20B23FB18013A1A7009E00C23FB180F22BA18CE
:4033400012781A700B23FB1800221A707B681B78402B03D97B681B785A2B03D90E23FB18AA221A700C23FB181B78082B04D80B23FB181B78032B03D90E23FB18AA221A70C2
:403380000E23FB181B78AA2B00D18CE00B23FB181B78002B4DD00D23FB181B78072B26D80F23FB180B22BA1812781A7019E00F23FB181B7807331A007B689B180D22BA18EE
:4033C00011780F22BA1812788A1811007A68521812781A700F23FB181A780F23FB18013A1A700F23FB181B78002BE0D121E00F23FB1808221A7013E00F23FB181B787A6868
:40340000D3180F22BA181278013279688A1812781A700F23FB181A780F23FB1801321A700F23FB181A780B23FB181B7807339A42E2DD0F23FB180A221A700DE00F23FB18C4
:403440001B787A68D31820221A700F23FB181A780F23FB18013A1A700F23FB181A780B23FB181B7807339A42E8DC0F23FB180C22BA1812781A700DE00F23FB181B787A68BA
:40348000D31820221A700F23FB181A780F23FB1801321A700F23FB181B78072BECD97B680B3300221A700E23FB181B781800BD4604B080BD80B582B000AF0200FB1D1A7043
:4034C000BB1D0A1C1A70BB1D1A78FB1D19780B4B8900C958094B9200D150BB1D1B78FA1D12780749895C064AD154BB1D1B781800FFF75AFEC046BD4602B080BDB4010020D6
:40350000CC01002080B582B000AF0200FB1D1A70BB1D0A1C1A70FB1D1A781C4B9200D3589A1E1B4B1A601B4B1B781A00184B1B685A43174B1A60FB1D1B78174AD35C1A002F
:40354000134B1B68D218124B1A60114B1B685A020F4B1A600E4B1A68104B1B68D2180C4B1A60BB1D1B78012B0BD1FB1D1A780C4B9200D358DB05DA0D054B1B68D218044B22
:403580001A60C046BD4602B080BDC046F0020020A4010020FD020020B001002004030020E002002090B583B000AF0200FB1D1A70BB1D0A1C1A70FB1D1B78254A99008A58BB
:4035C000511C234A9B009950FB1D1A78204B9200D358002B37D0FB1D1A781D4B9200D358DB05DB0D2FD1FB1D1B781A4AD35C1A00194B1B78013B9A421DD1FB1D1B78154A73
:403600000021D154BB1D1B78002B0ED1FB1D1C78FB1D1A78114B9200D3581800FEF75AFD01000E4BA200D1500DE0FB1D1B781800FEF7F2FC07E0FB1D1B78064AD25C013209
:40364000D1B2044AD154C046BD4603B090BDC046E0020020B0010020FD020020F002002080B500AF00F0BCF8C046BD4680BDC04680B500AF064B064A1268802109060A4371
:403680001A6000F033F800F039F8C046BD4680BD0000244080B500AF064B1B78002B04D1FFF7DEFF034B01221A70FFF7E1FFC046BD4680BD8001002080B500AF092000F05A
:4036C000F9FB00F023F8074B064A1268520052081A60054B00221A60092000F001FCC046BD4680BD00002440880F244080B500AF092000F0C9FBC046BD4680BD80B500AFF7
:4037000000F0CEF8C046BD4680BDC04680B500AF00F0E4F8C046BD4680BDC04680B582B000AF00237B60044B1B687B607B681800BD4602B080BDC0464003244080B582B0C9
:4037400000AF054B1B681F2213407B607B681800BD4602B080BDC0460803244080B500AF074B074A1268802149020A431A60044B034A126803490A401A60C046BD4680BDD6
:4037800004032440FFFFFEFF80B582B000AF7860C046064B1B681F221340082BF9D0044B7A681A60C046BD4602B080BD080224404002244080B500AF074B074A12688021F2
:4037C00049020A431A60044B034A126803490A401A60C046BD4680BD04022440FFFFFEFF80B500AF1D4B1E4A1A601E4B1E4A1A601E4B1F4A1A601F4B07221A601E4B1C4A45
:403800001A601E4B00221A60092000F053FB0321092000F0E5FA1A4B1900092000F0BAFA184B00221A60184B00221A60174B00221A60174B00221A60164B00221A60164BE3
:4038400000221A60144B1B689AB2144B1A80012000F07CF8C046BD4680BDC0460000244005000001200024401100008000032440070100800403244000022440040224400B
:40388000B1400000880E2440C80E2440480F2440080F2440C80F2440880F24408201002080B500AF094B094A1268F02109060A431A60074B064A12680F210A431A60054B85
:4038C000054A12881A60C046BD4680BD0001024000020240880F24408201002080B500AF154B1B68082213405A1E9341DBB2180000F0F0F8114B114A1268120112091A6014
:403900000D4B1A6880235B0013405A425341DBB2180000F0B9F80A4B094A12680F218A431A60084B1B689BB2202213409AB2064B1A80C046BD4680BD200024400001024051
:4039400000020240880F24408201002080B584B000AF78600A4B1B68FB60FB68094A1340FB607B689A06C0231B051340FA681343FB60034BFA681A60C046BD4604B080BDCE
:4039800020002440FFFFFFF380B584B000AF0200BB1D1A807B1D0A1C1A700C4B1B6807221340FB60BB1D1B881A02FB681A437B1D1B78DB00FF210B401343BB60034BBA6865
:4039C0001A60C046BD4604B080BDC0460003014080B500AF044B1B68FF2293431B0A9BB21800BD4680BDC0460003014080B584B000AF0200FB1D1A700F4B1B68DAB20F23F1
:403A0000FB1840218A431A70FB1D1B789B01DBB240221340D9B20F23FB180F22BA1812780A431A70044B0F22BA1812781A60C046BD4604B080BDC0460001044080B584B0FA
:403A400000AF0200FB1D1A700E4B1B68DAB20F23FB1801218A431A70FB1D1B7801221340D9B20F23FB180F22BA1812780A431A70044B0F22BA1812781A60C046BD4604B065
:403A800080BDC0460000044080B584B000AF0200FB1D1A700E4B1B68DAB20F23FB1801218A431A70FB1D1B7801221340D9B20F23FB180F22BA1812780A431A70044B0F22C8
:403AC000BA1812781A60C046BD4604B080BDC0460002044080B584B000AF0200FB1D1A700D4B1B68DAB20F23FB187F210A401A70FB1D1B78DB01D9B20F23FB180F22BA1874
:403B000012780A431A70044B0F22BA1812781A60C046BD4604B080BD0001044090B585B000AF78600C23FC1800F0BBFA030023707B68022B00D8AFE07B68302B00D9ABE0F7
:403B40005C4B1B78DBB21A007B689A420AD35A4A0F23FB1812781A70584A0E23FB1812781A703FE0564B1B78DBB21A007B689A420AD3544A0F23FB1812781A70524A0E2377
:403B8000FB1812781A702DE0504B1B78DBB21A007B689A420AD34E4A0F23FB1812781A704C4A0E23FB1812781A701BE04A4B1B78DBB21A007B689A420AD3484A0F23FB1844
:403BC00012781A70464A0E23FB1812781A7009E0444A0F23FB1812781A70434A0E23FB1812781A707B68DA1E0B23FB183F498A5C1A700B23FB181B782F2B0DD97B682A2BB4
:403C00000AD93B4B19221A60052000F041FA0D23FB1819221A7007E0354B1B68DAB20D23FB183F210A401A700B23FA180D23FB1812781B789A4208D22D4B7A68033A2B49C0
:403C40008A5C1A60052000F023FA2A4B7A6826498C4662441278D2B21A60274B0F22BA1812781A60254B0E22BA1812781A60052000F07EF90B23FA180D23FB1812781B78D1
:403C80009A420CD91A4B7A68033A18498A5C1A60052000F0FDF902E0002000F037F90C23FB181B78180000F000FAC046BD4605B090BDC04640F3FF0F41F3FF0F42F3FF0F23
:403CC00043F3FF0F44F3FF0F45F3FF0F46F3FF0F47F3FF0F48F3FF0F49F3FF0F4AF3FF0F4BF3FF0F4CF3FF0F4DF3FF0F404300002CFF0B4028FF0B401CFF0B4020FF0B4066
:403D000080B584B000AF78600023FB60154B154A126801210A431A60134B144A1A60144B134A1268802109020A431A607B68002B12D01023FB600CE0012000F019F900F097
:403D400019F8031E02D00023FB6005E07B68013B7B607B68002BEFD1FB681800BD4604B080BDC04660F02E4078002E400220000010002E4080B582B000AF054B1B6801224F
:403D800013407B607B681800BD4602B080BDC0460C002E4080B584B000AF02003960FB1D1A7080239B05FB60FB1D1B781F2B02D9002000F0ABF8FB1D1B7810339B00FA6807
:403DC000D3181B68BB60FB1D1B7810339B00FA68D3183A681A60BB681800BD4604B080BD90B587B000AF0200FB1D1A70BB1D0A1C1A70BB1D1B78032B02D9002000F086F8C0
:403E0000FB1D1B781F2B02D9002000F07FF8FB1D1B7803221340DB0006337B611323FC1800F03FF903002370FB1D1B789B08DBB29B00144A944663441B68FB6003227B69D4
:403E40009A401300DA43FB681340FB60BB1D1A787B699A401300FA681343FB60FB1D1B789B08DBB29B00074A94466344FA681A601323FB181B78180000F017F9C046BD46B8
:403E800007B090BD00E400E080B582B000AF0200FB1D1A70064BFA1D12781F210A40012191400A001A60C046BD4602B080BDC04600E100E080B582B000AF0200FB1D1A7014
:403EC000064BFA1D12781F210A40012191400A001A60C046BD4602B080BDC04680E100E080B582B000AF0200FB1D1A70064BFA1D12781F210A40012191400A001A60C046DD
:403F0000BD4602B080BDC04680E200E080B582B000AF0200FB1D1A7001BEC046BD4602B080BDC04680B582B000AF786009E00D4B1B68180000F0ACF87B680B4A94466344B9
:403F40007B607A6880231B029A42F0D8074B1B687A685343180000F09BF8C046BD4602B080BDC046E80000200080FFFFE000002080B582B000AF0200BB1D1A80BB1D1B88AF
:403F8000044A12785343180000F082F8C046BD4602B080BDE400002080B500AF0F4B0F4A126801218A431A600C4B0C4A126802218A431A600A4B0A4A126830218A43102198
:403FC0000A431A60064B064A126807218A4301210A431A60C046BD4680BDC04600F02E4000FF2E4080B500AF0F4B0F4A126802218A431A600D4B0D4A126807218A4302212E
:404000000A431A60094B094A126830218A4320210A431A60044B044A126801210A431A60C046BD4680BDC04600F02E4000FF2E4080B500AFFFF7B0FF044B044A126880211A
:4040400009060A431A60C046BD4680BD00F02E4080B584B000AF78600C4B1B6801221340FB607B68002B02D0012B03D005E0FFF793FF06E0FFF7B6FF03E00020FFF746FF10
:40408000C046FB681800BD4604B080BD00F02E400230800803D00138FDD1C046C046C0467047EFF3108072B6704780F31088704780B500AF044B1B68002B02D0024B1B683A
:4040C0009847C046BD4680BD84010020002243088B4274D303098B425FD3030A8B4244D3030B8B4228D3030C8B420DD3FF22090212BA030C8B4202D31212090265D0030BCC
:404100008B4219D300E0090AC30B8B4201D3CB03C01A5241830B8B4201D38B03C01A5241430B8B4201D34B03C01A5241030B8B4201D30B03C01A5241C30A8B4201D3CB02F0
:40414000C01A5241830A8B4201D38B02C01A5241430A8B4201D34B02C01A5241030A8B4201D30B02C01A5241CDD2C3098B4201D3CB01C01A524183098B4201D38B01C01A02
:40418000524143098B4201D34B01C01A524103098B4201D30B01C01A5241C3088B4201D3CB00C01A524183088B4201D38B00C01A524143088B4201D34B00C01A5241411AD9
:4041C00000D20146524110467047FFE701B5002000F006F802BDC0460029F7D076E770477047C046014B18687047C046500100200E4B70B500251E000D4CE41AA410A54229
:4042000004D0AB00F35898470135F8E700F0B0F8084B00251E00084CE41AA410A54204D0AB00F35898470135F8E770BD7C4300007C4300007C430000844300000300821819
:40424000934202D019700133FAE77047000000007700000066696C65312E74787400000054686973206973206D79203173742066696C652E0000000066696C655F746D705C
:404280002E747874000000005468697320697320612074656D702066696C652E0000000066696C65322E74787400000054686973206973206D7920326E642066696C652E8B
:4042C00000000000610000004920617070656E646564207468697320746578742E0000007200000066696C655F72656E2E7478740000000066696C655F6370792E747874AB
:404300000000000000300F40000400400F400004400000000095000046494C454E414D4545585420184FAC4E363136310000867B30310000000000007200000077000000C6
:40434000030405060708090A0B0C0E0F101112131415161718191B1C1D1E1F2021222325262728292A2B2E2F3031323334354300F8B5C046F8BC08BC9E46704745020000FD
:4043800075050000F8B5C046F8BC08BC9E4670471D020000A8430000C800002090000000B80200000000000000000000000200000200000002000000FFFF0000006CDC0233
:4043C00080BB0000300000000000C05D0100000000000000000000000000000000000000000000000000000000000000000000006E43000000000000000000000000000083
:40440000000000000000000000000000000000000000000000000000000000000000000000000000000000000000000000000000F00000200000000000000000000000006C
:40444000000000000000000000000000000000000000000000000000000000000000000000000000000000000000000000000000000000000000000000000000000000003C
:4044800000000000000000000000000000000000000000000000000000000000000000000000000000000000000000000000000000000000000000000000000000000000FC
:4044C00000000000000000000000000000000000000000000000000000000000000000000000000000000000000000000000000000000000000000000000000000000000BC
:40450000000000000000000000000000000000000000000000000000000000000000000000000000000000000000000000000000000000000000000000000000000000007B
:020000040003F7
:0200000490303A
:02000000BAB292
:0200000490402A
:4000000000000000000000000000000000000000000000000000000000000000000000000000000000000000000000000000000000000000000000000000000000000000C0
:400040000000000000000000000000000000000000000000000000000000000000000000000000000000000000000000000000000000000000000000000000000000000080
:0200000490501A
:0C00000000021A1711AA00011A2ECC5C95
:0200000490600A
:0100000001FE
:00000001FF